:1000000017C031C030C02FC02EC02DC02CC02BC097
:100010002AC029C028C027C026C025C024C023C0AC
:1000200022C021C020C0FC60DAF266B6BEE0FEF657
:1000300011241FBECFE5D4E0DEBFCDBF10E0A0E6A7
:10004000B0E0EAE5F5E002C005900D92A036B107F8
:10005000D9F710E0A0E6B0E001C01D92A236B107CA
:10006000E1F702D078C2CCCF17D0D0E0C0E006C014
:10007000809160009091610055D1DF5FDA30C0F36C
:1000800080916000909161008C599F4F9093610026
:1000900080936000DC2FF2CF889A909A089588238D
:1000A00021F090980000909A05C0909888E08A9579
:1000B000F1F7909A88E08A95F1F708951F93CF930E
:1000C000DF93E82FF0E0EA5DFF4FC491662321F053
:1000D00081E0E5DFC69503C080E0E1DFC69517E06B
:1000E000D0E0C0FF03C081E0DADF02C080E0D7DFEC
:1000F000D595C7951150A1F7DF91CF911F91089524
:100100001F93CF93DF93C82F18E0D0E0C0FF03C048
:1001100081E0C5DF02C080E0C2DFD595C7951150F0
:10012000A1F7DF91CF911F910895FF920F931F9335
:10013000CF93DF93F82EC62FD42F122F80E1E0DF6C
:10014000043021F4812F61E0B9DF03C0812F60E02A
:10015000B5DF000087EE93E00197F1F700C00000E3
:1001600080E2CEDF033021F48D2F61E0A7DF03C0F2
:100170008D2F60E0A3DF000087EE93E00197F1F799
:1001800000C0000080E4BCDF023021F48C2F61E06D
:1001900095DF03C08C2F60E091DF000087EE93E0D5
:1001A0000197F1F700C0000080E8AADF013021F4D8
:1001B0008F2D61E083DF03C08F2D60E07FDF0000C3
:1001C00087EE93E00197F1F700C00000DF91CF9137
:1001D0001F910F91FF900895CF92DF92EF92FF92BF
:1001E0000F93CF936B017C01C2D0DC01CB019C014A
:1001F0008A30910568F4C701B60120E030E04AE793
:1002000054E40AD1B4D0DC01CB019C0101E026C04A
:100210008436910568F4C701B60120E030E048EC6F
:1002200052E4FAD0A4D0DC01CB019C0102E016C05C
:1002300083E0283E380768F4C701B60120E030E0CB
:1002400040E251E4E9D093D0DC01CB019C0103E012
:1002500005C087E22031380708F404E0C90160E1F5
:1002600077E265D1E8EEF3E0BF0161D1C62EC901A6
:10027000BF015DD1E4E6F0E0BF0159D1C62FC9014D
:10028000BF0155D1EAE0F0E0BF0151D1462FC901CD
:10029000BF014DD1282F8C2D6C2F47DFCF910F91AF
:1002A000FF90EF90DF90CF9008950F931F93CF931F
:1002B000DF93C82FD62F142F022F80E121DF802F4C
:1002C00060E0FCDE000087EE93E00197F1F700C0EC
:1002D000000080E215DF812F60E0F0DE000087EE95
:1002E00093E00197F1F700C0000080E409DF8D2F53
:1002F00060E0E4DE000087EE93E00197F1F700C0D4
:10030000000080E8FDDE8C2F60E0D8DE000087EE84
:1003100093E00197F1F700C00000DF91CF911F91AA
:100320000F910895CF93DF93EC0160E177E2FFD066
:1003300028EE33E0B901FBD0F62FCE01B901F7D09A
:1003400024E630E0B901F3D0E62FCE01B901EFD0B9
:100350002AE030E0B901EBD0462FCE01B901E7D059
:10036000282F8F2F6E2FA1DFDF91CF91089533D0EB
:1003700088F09F5790F0B92F9927B751A0F0D1F08E
:10038000660F771F881F991F1AF0BA95C9F712C018
:10039000B13081F03AD0B1E0089537C0672F782F9F
:1003A0008827B85F39F0B93FCCF386957795679584
:1003B000B395D9F73EF490958095709561957F4FF0
:1003C0008F4F9F4F089557FD9058440F551F59F078
:1003D0005F3F71F04795880F97FB991F61F09F3F32
:1003E00079F087950895121613061406551FF2CF5B
:1003F0004695F1DF08C0161617061806991FF1CFAB
:1004000086957105610508940895E894BB276627D1
:100410007727CB0197F908950BD078C069D028F0E1
:100420006ED018F0952309F05AC05FC01124EECFAA
:10043000CADFA0F3959FD1F3950F50E0551F629F3F
:10044000F001729FBB27F00DB11D639FAA27F00D2D
:10045000B11DAA1F649F6627B00DA11D661F829F54
:100460002227B00DA11D621F739FB00DA11D621F39
:10047000839FA00D611D221F749F3327A00D611D56
:10048000231F849F600D211D822F762F6A2F112438
:100490009F5750408AF0E1F088234AF0EE0FFF1F8B
:1004A000BB1F661F771F881F91505040A9F79E3FC2
:1004B000510570F014C0AACF5F3FECF3983EDCF317
:1004C000869577956795B795F795E7959F5FC1F7FF
:1004D000FE2B880F911D9695879597F9089597F9AA
:1004E0009F6780E870E060E008959FEF80EC0895DA
:1004F00000240A9416161706180609060895002403
:100500000A9412161306140605060895092E03947C
:10051000000C11F4882352F0BB0F40F4BF2B11F4F0
:1005200060FF04C06F5F7F4F8F4F9F4F0895AA1BDE
:10053000BB1B51E107C0AA1FBB1FA617B70710F0CE
:10054000A61BB70B881F991F5A95A9F78095909500
:0A055000BC01CD010895F894FFCF1F
:00000001FF
