:1000000017C031C030C02FC02EC02DC02CC02BC097
:100010002AC029C028C027C026C025C024C023C0AC
:1000200022C021C020C0FC60DAF266B6BEE0FEF657
:1000300011241FBECFE5D4E0DEBFCDBF10E0A0E6A7
:10004000B0E0E2EFF6E002C005900D92A036B107F5
:10005000D9F710E0A0E6B0E001C01D92A436B107C8
:10006000E1F702D044C3CCCF28D0D0E0C0E00AC032
:1000700060916000709161008091620090916300D6
:10008000EAD0DF5FDA30A0F3609160007091610028
:1000900080916200909163002AE037ED43E25CE3D7
:1000A000CED1DC01CB018093600090936100A093DE
:1000B0006200B0936300DC2FE5CF889A909A899A0A
:1000C0008A9A8B9A8C9A0895882321F09098000040
:1000D000909A05C0909888E08A95F1F7909A88E008
:1000E0008A95F1F708951F93CF93DF93E82FF0E0FF
:1000F000EA5DFF4FC491662321F081E0E5DFC695FC
:1001000003C080E0E1DFC69517E0D0E0C0FF03C088
:1001100081E0DADF02C080E0D7DFD595C7951150C6
:10012000A1F785E38A95F1F70000DF91CF911F9148
:1001300008951F93CF93DF93C82F18E0D0E0C0FF3E
:1001400003C081E0C1DF02C080E0BEDFD595C79566
:100150001150A1F7DF91CF911F9108950F931F9335
:10016000CF93DF93182FC62FD42F822F919804306E
:10017000B1F461E0B8DF949A8BED95E00197F1F767
:1001800000C0000094988D2F60E0ADDF939A8BED56
:1001900095E00197F1F700C0000093983CC060E043
:1001A000A2DF949A8BED95E00197F1F700C0000073
:1001B00094980330B9F48D2F61E095DF939A8BED1D
:1001C00095E00197F1F700C0000093988C2F60E054
:1001D0008ADF929A8BED95E00197F1F700C000005D
:1001E00092982AC08D2F60E07EDF939A8BED95E088
:1001F0000197F1F700C000009398023061F48C2F52
:1002000061E071DF929A8BED95E00197F1F700C004
:100210000000929811C08C2F60E065DF929A8BED00
:1002200095E00197F1F700C000009298013021F4A9
:10023000812F61E058DF03C0812F60E054DF919A85
:100240008BED95E00197F1F700C00000DF91CF91B1
:100250001F910F910895CF92DF92EF92FF920F932B
:10026000CF936B017C014FD1DC01CB019C018A3023
:10027000910568F4C701B60120E030E04AE754E494
:10028000BFD141D1DC01CB019C0101E026C0843605
:10029000910568F4C701B60120E030E048EC52E473
:1002A000AFD131D1DC01CB019C0102E016C083E06B
:1002B000283E380768F4C701B60120E030E040E28C
:1002C00051E49ED120D1DC01CB019C0103E005C0AB
:1002D00087E22031380708F404E0C90160E177E2E1
:1002E000F2D1E8EEF3E0BF01EED1C62EC901BF01A5
:1002F000EAD1E4E6F0E0BF01E6D1C62FC901BF01B3
:10030000E2D1EAE0F0E0BF01DED1462FC901BF0132
:10031000DAD1282F8C2D6C2F21DFCF910F91FF90F8
:10032000EF90DF90CF9008951F93CF93DF93C82F66
:10033000D62F142F822F919860E0D5DE949A8BED02
:1003400095E00197F1F700C00000CC2341F4DD23D4
:10035000F1F51123E1F5949880E0EBDE17C0949855
:10036000812F60E0C0DE939A8BED95E00197F1F765
:1003700000C0000093988D2F60E0B5DE929A8BED5F
:1003800095E00197F1F700C0000015C0939880E058
:10039000D0DE0DC093988D2F60E0A5DE929A8BED94
:1003A00095E00197F1F700C00000CC2321F492986A
:1003B00080E0BFDE1AC092988C2F60E094DE919AA4
:1003C0008BED95E00197F1F700C000000EC0949806
:1003D000812F60E088DE939A8BED95E00197F1F72D
:1003E00000C00000DD23B1F6D1CFDF91CF911F9186
:1003F0000895CF93DF93EC0160E177E264D128EEBA
:1004000033E0B90160D1F62FCE01B9015CD124E609
:1004100030E0B90158D1E62FCE01B90154D12AE01C
:1004200030E0B90150D1462FCE01B9014CD1282F6F
:100430008F2F6E2F79DFDF91CF9108955058BB2712
:10044000AA270ED0A3C094D030F099D020F031F478
:100450009F3F11F41EF489C00EF4E095E7FB7FC0C6
:10046000E92FA5D080F3BA176207730784079507B1
:1004700018F071F49EF5BDC00EF4E0950B2EBA2F66
:10048000A02D0B01B90190010C01CA01A00111249A
:10049000FF27591B99F0593F50F4503E68F11A1646
:1004A000F040A22F232F342F4427585FF3CF4695D7
:1004B00037952795A795F0405395C9F77EF41F16F9
:1004C000BA0B620B730B840BBAF09150A1F0FF0FC3
:1004D000BB1F661F771F881FC2F70EC0BA0F621FAF
:1004E000731F841F48F4879577956795B795F7959F
:1004F0009E3F08F0B3CF9395880F08F09927EE0F31
:100500009795879508955BD088F09F5790F0B92F05
:100510009927B751A0F0D1F0660F771F881F991F58
:100520001AF0BA95C9F712C0B13081F062D0B1E0CB
:1005300008955FC0672F782F8827B85F39F0B93FDB
:10054000CCF3869577956795B395D9F73EF490955A
:100550008095709561957F4F8F4F9F4F089597F9C4
:100560009F6780E870E060E008959FEF80EC089559
:1005700000240A9416161706180609060895002482
:100580000A9412161306140605060895092E0394FC
:10059000000C11F4882352F0BB0F40F4BF2B11F470
:1005A00060FF04C06F5F7F4F8F4F9F4F089557FDCF
:1005B0009058440F551F59F05F3F71F04795880FD1
:1005C00097FB991F61F09F3F79F087950895121668
:1005D00013061406551FF2CF4695F1DF08C0161614
:1005E00017061806991FF1CF8695710561050894C5
:1005F0000895E894BB2766277727CB0197F90895DC
:100600000BD0C4CFB5DF28F0BADF18F0952309F07E
:10061000A6CFABCF1124EECFCADFA0F3959FD1F3C5
:10062000950F50E0551F629FF001729FBB27F00DA0
:10063000B11D639FAA27F00DB11DAA1F649F6627F5
:10064000B00DA11D661F829F2227B00DA11D621F44
:10065000739FB00DA11D621F839FA00D611D221FFE
:10066000749F3327A00D611D231F849F600D211DE2
:10067000822F762F6A2F11249F5750408AF0E1F085
:1006800088234AF0EE0FFF1FBB1F661F771F881FCE
:1006900091505040A9F79E3F510570F060CFAACF0E
:1006A0005F3FECF3983EDCF3869577956795B795B9
:1006B000F795E7959F5FC1F7FE2B880F911D9695E3
:1006C000879597F90895AA1BBB1B51E107C0AA1F84
:1006D000BB1FA617B70710F0A61BB70B881F991FE3
:1006E0005A95A9F780959095BC01CD010895F8948D
:0206F000FFCF3A
:00000001FF
