:1000000017C031C030C02FC02EC02DC02CC02BC097
:100010002AC029C028C027C026C025C024C023C0AC
:1000200022C021C020C0FC60DAF266B6BEE0FEF657
:1000300011241FBECFE5D4E0DEBFCDBF10E0A0E6A7
:10004000B0E0E4E0F6E002C005900D92A036B10702
:10005000D9F710E0A0E6B0E001C01D92A236B107CA
:10006000E1F702D0CDC2CCCF16D0D0E0C0E006C0C0
:100070008091600090916100AAD1DF5FDA30C0F317
:1000800080916000909161000A9690936100809346
:100090006000DC2FF3CF889A909A899A8A9A8B9A7B
:1000A0008C9A0895882321F090980000909A05C0BA
:1000B000909888E08A95F1F7909A88E08A95F1F710
:1000C00008951F93CF93DF93E82FF0E0EA5DFF4F91
:1000D000C491662321F081E0E5DFC69503C080E08E
:1000E000E1DFC69517E0D0E0C0FF03C081E0DADFB2
:1000F00002C080E0D7DFD595C7951150A1F785E301
:100100008A95F1F70000DF91CF911F9108951F9319
:10011000CF93DF93C82F18E0D0E0C0FF03C081E089
:10012000C1DF02C080E0BEDFD595C7951150A1F7B1
:10013000DF91CF911F9108950F931F93CF93DF937A
:10014000182FC62FD42F822F91980430B1F461E07C
:10015000B8DF949A8FEC97E00197F1F700C00000A8
:1001600094988D2F60E0ADDF939A8FEC97E0019724
:10017000F1F700C0000093983CC060E0A2DF949AC1
:100180008FEC97E00197F1F700C0000094980330DE
:10019000B9F48D2F61E095DF939A8FEC97E001978A
:1001A000F1F700C0000093988C2F60E08ADF929AEC
:1001B0008FEC97E00197F1F700C0000092982AC0F9
:1001C0008D2F60E07EDF939A8FEC97E00197F1F737
:1001D00000C000009398023061F48C2F61E071DF61
:1001E000929A8FEC97E00197F1F700C00000929887
:1001F00011C08C2F60E065DF929A8FEC97E0019739
:10020000F1F700C000009298013021F4812F61E0E5
:1002100058DF03C0812F60E054DF919A8FEC97E0A4
:100220000197F1F700C00000DF91CF911F910F916E
:100230000895CF92DF92EF92FF920F93CF936B01CD
:100240007C01EAD0DC01CB019C018A30910568F485
:10025000C701B60120E030E04AE754E432D1DCD0F7
:10026000DC01CB019C0101E026C08436910568F4D5
:10027000C701B60120E030E048EC52E422D1CCD0F6
:10028000DC01CB019C0102E016C083E0283E380768
:1002900068F4C701B60120E030E040E251E411D13A
:1002A000BBD0DC01CB019C0103E005C087E220311B
:1002B000380708F404E0C90160E177E28DD1E8EE87
:1002C000F3E0BF0189D1C62EC901BF0185D1E4E6A3
:1002D000F0E0BF0181D1C62FC901BF017DD1EAE0A5
:1002E000F0E0BF0179D1462FC901BF0175D1282F98
:1002F0008C2D6C2F21DFCF910F91FF90EF90DF902D
:10030000CF9008951F93CF93DF93C82FD62F142F2C
:10031000822F919860E0D5DE949A8FEC97E0019758
:10032000F1F700C00000CC2341F4DD23F1F51123E7
:10033000E1F5949880E0EBDE17C09498812F60E09F
:10034000C0DE939A8FEC97E00197F1F700C00000B0
:1003500093988D2F60E0B5DE929A8FEC97E001972D
:10036000F1F700C0000015C0939880E0D0DE0DC00A
:1003700093988D2F60E0A5DE929A8FEC97E001971D
:10038000F1F700C00000CC2321F4929880E0BFDE9A
:100390001AC092988C2F60E094DE919A8FEC97E0CF
:1003A0000197F1F700C000000EC09498812F60E023
:1003B00088DE939A8FEC97E00197F1F700C0000078
:1003C000DD23B1F6D1CFDF91CF911F910895CF9367
:1003D000DF93EC0160E177E2FFD028EE33E0B90172
:1003E000FBD0F62FCE01B901F7D024E630E0B901F9
:1003F000F3D0E62FCE01B901EFD02AE030E0B90109
:10040000EBD0462FCE01B901E7D0282F8F2F6E2FCA
:1004100079DFDF91CF91089533D088F09F5790F026
:10042000B92F9927B751A0F0D1F0660F771F881F19
:10043000991F1AF0BA95C9F712C0B13081F03AD0BD
:10044000B1E0089537C0672F782F8827B85F39F05B
:10045000B93FCCF3869577956795B395D9F73EF478
:1004600090958095709561957F4F8F4F9F4F089520
:1004700057FD9058440F551F59F05F3F71F0479555
:10048000880F97FB991F61F09F3F79F0879508953A
:10049000121613061406551FF2CF4695F1DF08C059
:1004A000161617061806991FF1CF86957105610576
:1004B00008940895E894BB2766277727CB0197F91E
:1004C00008950BD078C069D028F06ED018F095232D
:1004D00009F05AC05FC01124EECFCADFA0F3959F88
:1004E000D1F3950F50E0551F629FF001729FBB271B
:1004F000F00DB11D639FAA27F00DB11DAA1F649FC7
:100500006627B00DA11D661F829F2227B00DA11D79
:10051000621F739FB00DA11D621F839FA00D611DFF
:10052000221F749F3327A00D611D231F849F600D20
:10053000211D822F762F6A2F11249F5750408AF059
:10054000E1F088234AF0EE0FFF1FBB1F661F771FE5
:10055000881F91505040A9F79E3F510570F014C07C
:10056000AACF5F3FECF3983EDCF3869577956795CD
:10057000B795F795E7959F5FC1F7FE2B880F911D03
:100580009695879597F9089597F99F6780E870E0A9
:1005900060E008959FEF80EC089500240A941616F9
:1005A000170618060906089500240A941216130661
:1005B000140605060895092E0394000C11F48823EF
:1005C00052F0BB0F40F4BF2B11F460FF04C06F5F0B
:1005D0007F4F8F4F9F4F0895AA1BBB1B51E107C050
:1005E000AA1FBB1FA617B70710F0A61BB70B881FC3
:1005F000991F5A95A9F780959095BC01CD01089552
:04060000F894FFCF9C
:00000001FF
