S01D0000313830325F4F6E655F576972655F484434343738302E73726563D3
S11300006AC084C083C082C081C080C07FC07EC0FB
S11300107DC07CC07BC07AC079C078C077C076C010
S113002075C074C073C016C28EC28DC28CC28BC21E
S11300308AC289C288C287C286C285C284C283C278
S113004082C281C280C248C27EC27DC27CC27BC2DF
S11300507AC279C278C2F4C175C2F4C1F5C1F6C1DD
S1130060F7C1FAC1FBC1FCC1FDC1FEC1FFC100C2A1
S113007001C202C203C204C205C206C207C208C248
S113008009C20AC20BC20CC20DC20EC20FC210C2F8
S113009011C212C213C214C215C216C217C218C2A8
S11300A019C21CC21DC21EC21FC220C221C222C24A
S11300B023C224C225C226C227C228C229C22AC2F8
S11300C02BC22CC22DC22EC22FC230C231C232C2A8
S11300D033C234C235C211241FBECFE5D4E0DEBF23
S11300E0CDBF10E0A0E6B0E0E6E7F5E002C0059081
S11300F00D92A438B107D9F710E0A4E8B0E001C02C
S11301001D92A83AB107E1F702D033C279CF8FEF3D
S113011081BB09D18FEF90E7A2E081509040A040CD
S1130120E1F700C0000080E060E059D1A4E8B0E04D
S1130130E0E6F0E084E201900D928150E1F760E0A6
S11301404ED1AFECB7E01197F1F700C0000083E0A7
S113015053D18FEF93EDA0E381509040A040E1F79D
S113016000C0000080E060E03AD1AFECB7E0119746
S1130170F1F700C0000082E03FD18FEF93EDA0E3E0
S113018081509040A040E1F700C0000080E060E0B2
S113019026D1AFECB7E01197F1F700C0000080E082
S11301A02BD18FEF93EDA0E381509040A040E1F775
S11301B000C0000080E060E012D1CDE081E060E0AA
S11301C01FD18FE79EE0A8E081509040A040E1F766
S11301D000C00000C15091F7F2D080E060E0FFD091
S11301E084E890E06DE1B0D18FEF94E3ACE081500E
S11301F09040A040E1F700C00000D3E10DC081E0D1
S113020060E0FED08FE79EE0A8E081509040A040DF
S1130210E1F700C00000CF5FC33188F38FEF99E6A8
S1130220A8E181509040A040E1F700C00000CD2F2C
S113023081E064E0E5D08FE79EE0A8E08150904043
S1130240A040E1F700C00000C15091F7E5CF88233A
S113025021F090980000909A06C090988DE08A95BD
S1130260F1F70000909A8DE08A95F1F70000089567
S11302701F93CF93DF93C82F18E0D0E0C0FF03C0D3
S113028081E0E5DF02C080E0E2DFD595C79511503B
S1130290A1F78BE291E00197F1F700C00000DF9134
S11302A0CF911F910895CF93C82F8091A700807F8D
S11302B080618093A700DCDF8091A7008C2B809362
S11302C0A700D6DF8091A7008F7E8093A700D0DFA0
S11302D085E88A95F1F70000CF910895CF93C82F50
S11302E082958F70662331F09091A700906290936D
S11302F0A70005C09091A7009F7D9093A700D3DF2E
S11303008C2FD1DFCF910895CF93C82F8091A70070
S113031080628093A7008C2F82958F70C4DF8C2F0E
S1130320C2DFCF910895889A8FE39CE90197F1F792
S113033000C0000083E0B7DF8FE097E20197F1F798
S113034000C0000083E0AFDF87EC90E00197F1F795
S113035000C0000083E0A7DF8FEC97E00197F1F77E
S113036000C0000082E09FDF8FEC97E00197F1F777
S113037000C000008CE260E0B1DF8FEC97E00197F1
S1130380F1F700C000008CE060E0A8DF8FEC97E09C
S11303900197F1F700C0000081E060E09FDF8FEC7F
S11303A097E00197F1F700C0000086E060E096DF77
S11303B08FEC97E00197F1F700C0000008958FECEF
S11303C097E00197F1F700C0000081E060E086DF6C
S11303D08FE99FE00197F1F700C00000089582952E
S11303E0880F880F807C860F806860E077DF08952F
S11303F0886060E073DF08958C6060E06FDF0895CB
S11304001F93CF93DF93D82F882349F0C0E0162F92
S11304101861812F60E062DFCF5FCD17D1F7DF91E4
S1130420CF911F910895482F50E0485A50404835C5
S1130430510508F088C04D5E5F4F4F935F93089558
S113044081E4089582E4089581EA089580EE089590
S113045085E4089582EA089583EA089583E308957C
S113046085EA089586EA08958BE4089587EA089555
S11304708DE4089588E408958FE4089588EA089542
S113048080E5089583E4089584E5089589EA08954C
S11304908AEA089588E5089581EE08958BEA08951F
S11304A08CEA089582EE08958DEA08958EEA0895FF
S11304B082E608958FEA089580EB089581EB08950C
S11304C081E6089582EB089583EB089584EB089503
S11304D083EE089585E6089585EB089586EB0895E7
S11304E087EB089588EB089589EB08958AEB0895C6
S11304F08BEB08958CEB08958DEB08958FE60895AA
S11305008EEB089580E7089583E608958FEB0895B0
S113051089E7089584EE089588E7089585EE08959F
S113052080EC089581EC089586EE089582EC089598
S113053083EC089584EC089585EC089586EC089581
S113054087EC089580EA08950F931F93CF93DF9368
S11305508C01D62FC0E0F801EC0FF11D808163DF20
S1130560D3DECF5FDC17B8F7DF91CF911F910F91E6
S10905700895F894FFCF8A
S113057673616D706C6520746578742053414D50B9
S11305864C4520544558542073616D706C65207435
S1070596657874000C
S9030000FC
