:1000000017C031C030C02FC02EC02DC02CC02BC097
:100010002AC029C028C027C026C025C024C023C0AC
:1000200022C021C020C0FC60DAF266B6BEE0FEF657
:1000300011241FBECFE5D4E0DEBFCDBF10E0A0E6A7
:10004000B0E0ECEFF4E002C005900D92A036B107ED
:10005000D9F710E0A0E6B0E001C01D92A436B107C8
:10006000E1F702D049C2CCCF32D080E0D1E0C0E08D
:100070000AC060916000709161008091620090916F
:1000800063008CD08D2F8823A1F360916000709164
:10009000610080916200909163002FE832EC45EF9F
:1000A0005CE3D2D0DC01CB018093600090936100CF
:1000B000A0936200B09363008FEF90E7A2E08150BD
:1000C0009040A040E1F700C000008C2FDCCF889A60
:1000D000909A0895882321F090980000909A05C086
:1000E000909888E08A95F1F7909A88E08A95F1F7E0
:1000F00008951F93CF93DF93E82FF0E0EA5DFF4F61
:10010000C491662321F081E0E5DFC69503C080E05D
:10011000E1DFC69517E0D0E0C0FF03C081E0DADF81
:1001200002C080E0D7DFD595C7951150A1F7DF91C8
:10013000CF911F9108951F93CF93DF93C82F18E09D
:10014000D0E0C0FF03C081E0C5DF02C080E0C2DFB5
:10015000D595C7951150A1F7DF91CF911F910895C3
:10016000CF93DF93D82F862FC42F0000423019F48D
:1001700061E0BFDF02C060E0BCDF00000000000003
:10018000C13021F48D2F61E0B4DF03C08D2F60E01A
:10019000B0DF00000000DF91CF910895CF92DF9291
:1001A000EF92FF92CF936B017C01B2D0DC01CB01C7
:1001B0009C018A30910568F4C701B60120E030E067
:1001C00040E251E422D1A4D0DC01CB019C01C1E08A
:1001D00004C08436910508F4C2E0C90164E670E009
:1001E00077D1EAE0F0E0BF0173D1462FC901BF012A
:1001F0006FD1682F842F4C2FB3DFCF91FF90EF90FA
:10020000DF90CF900895CF93C82F862F919860E00C
:1002100070DF929A000092988C2F60E06ADF919ACA
:100220000000CF9108959C0164E670E051D1EAE0AE
:10023000F0E0BF014DD1462FC901BF0149D1682F60
:10024000842FE1DF08955058BB27AA270ED0A3C002
:1002500094D030F099D020F031F49F3F11F41EF487
:1002600089C00EF4E095E7FB7FC0E92FA5D080F3AD
:10027000BA17620773078407950718F071F49EF5A3
:10028000BDC00EF4E0950B2EBA2FA02D0B01B901C5
:1002900090010C01CA01A0011124FF27591B99F0FC
:1002A000593F50F4503E68F11A16F040A22F232F08
:1002B000342F4427585FF3CF469537952795A79558
:1002C000F0405395C9F77EF41F16BA0B620B730BFF
:1002D000840BBAF09150A1F0FF0FBB1F661F771F70
:1002E000881FC2F70EC0BA0F621F731F841F48F425
:1002F000879577956795B795F7959E3F08F0B3CFAB
:100300009395880F08F09927EE0F97958795089594
:100310005BD088F09F5790F0B92F9927B751A0F084
:10032000D1F0660F771F881F991F1AF0BA95C9F789
:1003300012C0B13081F062D0B1E008955FC0672F84
:10034000782F8827B85F39F0B93FCCF38695779539
:100350006795B395D9F73EF4909580957095619522
:100360007F4F8F4F9F4F089597F99F6780E870E008
:1003700060E008959FEF80EC089500240A9416161B
:10038000170618060906089500240A941216130683
:10039000140605060895092E0394000C11F4882311
:1003A00052F0BB0F40F4BF2B11F460FF04C06F5F2D
:1003B0007F4F8F4F9F4F089557FD9058440F551F03
:1003C00059F05F3F71F04795880F97FB991F61F0D7
:1003D0009F3F79F087950895121613061406551F4E
:1003E000F2CF4695F1DF08C0161617061806991FBA
:1003F000F1CF86957105610508940895E894BB27AF
:1004000066277727CB0197F908950BD0C4CFB5DFC6
:1004100028F0BADF18F0952309F0A6CFABCF11244E
:10042000EECFCADFA0F3959FD1F3950F50E0551F93
:10043000629FF001729FBB27F00DB11D639FAA2739
:10044000F00DB11DAA1F649F6627B00DA11D661F88
:10045000829F2227B00DA11D621F739FB00DA11DA9
:10046000621F839FA00D611D221F749F3327A00D63
:10047000611D231F849F600D211D822F762F6A2FFF
:1004800011249F5750408AF0E1F088234AF0EE0F84
:10049000FF1FBB1F661F771F881F91505040A9F791
:1004A0009E3F510570F060CFAACF5F3FECF3983EBE
:1004B000DCF3869577956795B795F795E7959F5FF8
:1004C000C1F7FE2B880F911D9695879597F9089592
:1004D000AA1BBB1B51E107C0AA1FBB1FA617B7076A
:1004E00010F0A61BB70B881F991F5A95A9F7809586
:0C04F0009095BC01CD010895F894FFCF59
:00000001FF
