:1000000017C031C030C02FC02EC02DC02CC02BC097
:100010002AC029C028C027C026C025C024C023C0AC
:1000200022C021C020C0FC60DAF266B6BEE0FEF657
:1000300011241FBECFE5D4E0DEBFCDBF10E0A0E6A7
:10004000B0E0EEECF4E002C005900D92A036B107EE
:10005000D9F710E0A0E6B0E001C01D92A436B107C8
:10006000E1F702D032C2CCCF32D080E0D1E0C0E0A4
:100070000AC060916000709161008091620090916F
:100080006300A9D08D2F8823A1F360916000709147
:10009000610080916200909163002FE832EC45EF9F
:1000A0005CE31ED1DC01CB01809360009093610082
:1000B000A0936200B09363008FEF90E7A2E08150BD
:1000C0009040A040E1F700C000008C2FDCCF889A60
:1000D000909A0895882321F090980000909A05C086
:1000E000909888E08A95F1F7909A88E08A95F1F7E0
:1000F00008951F93CF93DF93E82FF0E0EA5DFF4F61
:10010000C491662321F081E0E5DFC69503C080E05D
:10011000E1DFC69517E0D0E0C0FF03C081E0DADF81
:1001200002C080E0D7DFD595C7951150A1F7DF91C8
:10013000CF911F9108951F93CF93DF93C82F18E09D
:10014000D0E0C0FF03C081E0C5DF02C080E0C2DFB5
:10015000D595C7951150A1F7DF91CF911F910895C3
:100160000F931F93CF93DF93182FC62FD42F822F77
:100170000000043019F461E0BCDF02C060E0B9DFC8
:10018000000000000000033021F48D2F61E0B1DF9A
:1001900003C08D2F60E0ADDF0000000000000230E2
:1001A00021F48C2F61E0A5DF03C08C2F60E0A1DF7C
:1001B000000000000000013021F4812F61E099DF90
:1001C00003C0812F60E095DF00000000DF91CF9138
:1001D0001F910F9108950F93CF93DF93E5D0DC012A
:1001E000CB01EC0160E177E25CD128EE33E0B901AC
:1001F00058D1F62FCE01B90154D124E630E0B9012F
:1002000050D1E62FCE01B9014CD12AE030E0B9013E
:1002100048D1462FCE01B90144D1282F8F2F6E2F00
:1002200004E09EDFDF91CF910F9108951F93CF934C
:10023000DF93C82FD62F142F822F000060E059DFE4
:1002400000000000CC2331F4DD2321F4112311F44C
:1002500000000AC00000812F60E04BDF00000000BA
:10026000CC2321F4DD2311F4000008C000008D2F01
:1002700060E03FDF00000000CC2311F4000006C066
:1002800000008C2F60E035DF00000000DF91CF918F
:100290001F910895CF93DF93EC0160E177E201D1E4
:1002A00028EE33E0B901FDD0F62FCE01B901F9D027
:1002B00024E630E0B901F5D0E62FCE01B901F1D046
:1002C0002AE030E0B901EDD0462FCE01B901E9D0E6
:1002D000282F8F2F6E2FAADFDF91CF9108955058CE
:1002E000BB27AA270ED0A3C094D030F099D020F01D
:1002F00031F49F3F11F41EF489C00EF4E095E7FB42
:100300007FC0E92FA5D080F3BA176207730784076F
:10031000950718F071F49EF5BDC00EF4E0950B2E14
:10032000BA2FA02D0B01B90190010C01CA01A00147
:100330001124FF27591B99F0593F50F4503E68F1A2
:100340001A16F040A22F232F342F4427585FF3CFE3
:10035000469537952795A795F0405395C9F77EF4B4
:100360001F16BA0B620B730B840BBAF09150A1F0FD
:10037000FF0FBB1F661F771F881FC2F70EC0BA0F83
:10038000621F731F841F48F4879577956795B7950B
:10039000F7959E3F08F0B3CF9395880F08F0992703
:1003A000EE0F9795879508955BD088F09F5790F052
:1003B000B92F9927B751A0F0D1F0660F771F881F8A
:1003C000991F1AF0BA95C9F712C0B13081F062D006
:1003D000B1E008955FC0672F782F8827B85F39F0A4
:1003E000B93FCCF3869577956795B395D9F73EF4E9
:1003F00090958095709561957F4F8F4F9F4F089591
:1004000097F99F6780E870E060E008959FEF80ECC7
:10041000089500240A94161617061806090608956A
:1004200000240A9412161306140605060895092ED0
:100430000394000C11F4882352F0BB0F40F4BF2B3F
:1004400011F460FF04C06F5F7F4F8F4F9F4F08957F
:1004500057FD9058440F551F59F05F3F71F0479575
:10046000880F97FB991F61F09F3F79F0879508955A
:10047000121613061406551FF2CF4695F1DF08C079
:10048000161617061806991FF1CF86957105610596
:1004900008940895E894BB2766277727CB0197F93E
:1004A0000895AA1BBB1B51E107C0AA1FBB1FA617BB
:1004B000B70710F0A61BB70B881F991F5A95A9F70D
:0E04C00080959095BC01CD010895F894FFCF72
:00000001FF
