:1000000017C031C030C02FC02EC02DC02CC02BC097
:100010002AC029C028C027C026C025C024C023C0AC
:1000200022C021C020C0FC60DAF266B6BEE0FEF657
:1000300011241FBECFE5D4E0DEBFCDBF10E0A0E6A7
:10004000B0E0ECE9F3E002C005900D92A036B107F4
:10005000D9F710E0A0E6B0E001C01D92A236B107CA
:10006000E1F702D099C1CCCF20D080E0D1E0C0E050
:1000700006C0809160009091610000D18D2F88238F
:10008000C1F38091600090916100019690936100AE
:10009000809360008FEF90E7A2E081509040A040F5
:1000A000E1F700C000008C2FEACF889A909A08955B
:1000B000882321F090980000909A05C0909888E0DD
:1000C0008A95F1F7909A88E08A95F1F708951F9341
:1000D000CF93DF93E82FF0E0EA5DFF4FC4916623F2
:1000E00021F081E0E5DFC69503C080E0E1DFC69541
:1000F00017E0D0E0C0FF03C081E0DADF02C080E09B
:10010000D7DFD595C7951150A1F7DF91CF911F91FA
:1001100008951F93CF93DF93C82F18E0D0E0C0FF5E
:1001200003C081E0C5DF02C080E0C2DFD595C7957E
:100130001150A1F7DF91CF911F9108950F931F9355
:10014000CF93DF93182FC62FD42F822F00000430B7
:1001500019F461E0BCDF02C060E0B9DF000000001C
:100160000000033021F48D2F61E0B1DF03C08D2F3B
:1001700060E0ADDF000000000000023021F48C2FB1
:1001800061E0A5DF03C08C2F60E0A1DF000000006C
:100190000000013021F4812F61E099DF03C0812F3D
:1001A00060E095DF00000000DF91CF911F910F917B
:1001B00008950F93CF93DF9386D0DC01CB01EC0140
:1001C00060E177E2D5D028EE33E0B901D1D0F62F47
:1001D000CE01B901CDD024E630E0B901C9D0E62F77
:1001E000CE01B901C5D02AE030E0B901C1D0462F17
:1001F000CE01B901BDD0282F8F2F6E2F04E09EDFD6
:10020000DF91CF910F9108951F93CF93DF93C82F64
:10021000D62F142F822F000060E059DF000000006D
:10022000CC2341F4DD2331F4112321F4000080E0DC
:1002300070DF0AC00000812F60E049DF000000008D
:10024000CC2331F4DD2321F4000080E062DF08C01C
:1002500000008D2F60E03BDF00000000CC2321F484
:10026000000080E056DF06C000008C2F60E02FDF2A
:1002700000000000DF91CF911F910895CF93DF938D
:10028000EC0160E177E274D028EE33E0B90170D080
:10029000F62FCE01B9016CD024E630E0B90168D068
:1002A000E62FCE01B90164D02AE030E0B90160D078
:1002B000462FCE01B9015CD0282F8F2F6E2FA4DFDF
:1002C000DF91CF91089533D088F09F5790F0B92FE8
:1002D0009927B751A0F0D1F0660F771F881F991F9B
:1002E0001AF0BA95C9F712C0B13081F03AD0B1E036
:1002F000089537C0672F782F8827B85F39F0B93F46
:10030000CCF3869577956795B395D9F73EF490959C
:100310008095709561957F4F8F4F9F4F089557FD42
:100320009058440F551F59F05F3F71F04795880F63
:1003300097FB991F61F09F3F79F0879508951216FA
:1003400013061406551FF2CF4695F1DF08C01616A6
:1003500017061806991FF1CF869571056105089457
:100360000895E894BB2766277727CB0197F908956E
:10037000AA1BBB1B51E107C0AA1FBB1FA617B707CB
:1003800010F0A61BB70B881F991F5A95A9F78095E7
:0C0390009095BC01CD010895F894FFCFBA
:00000001FF
